:020000040800F2
:1000000088070020E50200082F2F0008192B0008A0
:100010002D2F0008211D0008D92F00080000000026
:10002000000000000000000000000000332F000866
:10003000231D000800000000312F0008352F0008A4
:10004000FF020008FF020008FF020008FF0200088C
:10005000FF020008FF020008FF020008FF0200087C
:10006000FF020008FF020008FF020008FF0200086C
:10007000FF020008FF020008FF020008FF0200085C
:10008000FF020008FF020008FF0200080000000055
:10009000000000000000000000000000FF02000857
:1000A000FF020008FF020008FF020008FF0200082C
:1000B000FF020008FF020008FF020008FF0200081C
:1000C000FF020008FF020008FF020008FF0200080C
:1000D000FF020008FF020008FF0200080000000005
:1000E000FF020008FF020008FF02000800000000F5
:1000F000000000000000000000000000FF020008F7
:1001000000000000FF020008FF020008FF020008D4
:1001100000000000000000000000000000000000DF
:10012000FF020008FF020008FF020008FF020008AB
:10013000FF020008000000000000000000000000B6
:10014000000000000000000000000000FF020008A6
:10015000FF020008FF020008FF020008FF0200087B
:10016000FF020008FF02000800000000000000007D
:10017000000000000000000000000000000000007F
:1001800000000000FF020008000000000000000066
:10019000FF020008FF02000800F002F800F092F8E9
:1001A0000AA090E8000C82448344AAF10107DA45D2
:1001B00001D100F087F8AFF2090EBAE80F0013F092
:1001C000010F18BFFB1A43F001031847883A0000DB
:1001D000A83A0000103A24BF78C878C1FAD852076C
:1001E00024BF30C830C144BF04680C6070470000B1
:1001F0000023002400250026103A28BF78C1FBD830
:10020000520728BF30C148BF0B6070476E2900F00D
:100210000E83702900F06784662903F07E846529C7
:1002200003F07B84672903F07884612903F07784E5
:1002300003681B0A28BF41F08001692900F0628130
:10024000642900F05F81752900F05C816F2900F05E
:10025000F483782900F03384E92900F08F83E429BE
:1002600000F08C83F52900F08983EF2900F0F183F9
:10027000F82900F032840368DB0928BF41F08001CF
:10028000632900F01083732900F01583E32901F03E
:100290001180F32901F01680002070471FB503F08C
:1002A00037FC01F061F804000020002103F01AFC83
:1002B000401C60600020002103F0FEFBE0601FBDD9
:1002C00010B510BD01F022F81146FFF7E7FF03F06B
:1002D00091F901F0FFF803B4FFF7F2FF03BC01F05E
:1002E00047F900000948804709480047FEE7FEE754
:1002F000FEE7FEE7FEE7FEE7FEE7FEE7FEE7FEE7D6
:1003000004480549054A064B70470000C92F0008FC
:100310009901000888010020880700208803002038
:100320008803002053EA020C00F069802DE9F04BAD
:100330004FF00006002B1FBFB3FA83F503FA05F454
:1003400024FA05F65E4012BF1643B2FA82F502FAAD
:1003500005F4C5F120051EBF22FA05FC44EA0C0491
:10036000203556EA044C4FEA144418BF641C4FF081
:1003700000084FF00009904271EB030C39D30029BB
:1003800019BFB1FA81F701FA07F6B0FA80F700FA5F
:1003900007F6C7F120071EBF20FA07FC46EA0C0645
:1003A0002037B6FBF4FCA7EB0507103F07F01F0B47
:1003B000CBF120060CFA0BFB2CFA06F644BFB34631
:1003C0000026202FA4BF5E464FF0000B5BEA060C10
:1003D00008BF4FF0010B19EB0B09ABFB027C48EB9C
:1003E0000608C01B06FB02CC0BFB03CC71EB0C0117
:1003F000C1E70B46024641464846BDE8F08B13B5BF
:100400004FF000004FF00001AFF30080BDE81C404A
:10041000704700001CB50C46064B7B4469460090B3
:10042000204600F01EFA04460020694600F02CFA2F
:1004300020461CBD6B0400000FB41CB5084B06AA77
:100440007B4469460090059800F00BFA04460020B2
:10045000694600F019FA20461CBC5DF814FB000048
:100460004504000070B5044685690068C10601D5E1
:10047000302600E02026C00707D070BDD4E9012156
:1004800030469047206A401C20626D1EF6D570BD34
:1004900070B5044685690078C00707D170BDD4E9FE
:1004A000012120209047206A401C20626D1EF6D555
:1004B00070BD70B50C460546012A05D02878800627
:1004C00000D5EA69002302E0012305E05B1C9342AA
:1004D00002D2E05C0028F9D1A869E618C01AA86128
:1004E000286A184428622846FFF7BCFF04E0D5E9D3
:1004F000012114F8010B9047B442F8D32846FFF7C6
:10050000C7FF70BD2DE9F04106460024106875292B
:10051000314616A510D000F01FF9002802DA40423B
:1005200013A507E031688A0701D512A502E0490743
:1005300004D511A5012401E000F017F900210A22D9
:1005400006F1240709E0B0FBF2FCB0FBF2F302FB7A
:100550001C00303078541846491C0028F3D123463B
:100560002A463046BDE8F04100F008B9000000001E
:100570002D0000002B000000200000002DE9F05F9E
:10058000894604464FF0000ADFF874B1FB44C0F816
:1005900020A02046E1688847002874D0252806D08E
:1005A000D4E901219047206A401C2062F1E700262F
:1005B0005F462046E16888472028054607DB312D45
:1005C00005D2781910F8200C08B10643F1E7B007FE
:1005D00001D526F00406C4F81CA00027C4F818A012
:1005E0002A2D09D0284602F020FD38B304EB8708F5
:1005F000303DC8F8185019E059F8041B204604EBA8
:1006000087029161E1688847012F054618D1E069AA
:10061000002820DA26F020061DE0D8F8180000EBAC
:10062000800005EB40003038C8F818002046E1682B
:100630008847054602F0F9FC0028EED1012F0AD0C8
:100640002E2D08D12046E16888477F1C0546022FE1
:1006500046F02006C4DBA069002803DA404246F0D9
:100660000106A061F00701D026F010066C2D0BD01A
:10067000682D09D04C2D39D06A2D35D0742D35D048
:100680007A2D33D016E038E0E1682F4620468847BF
:10069000B842054609D16C2F26D04FF48060E1683E
:1006A000064320468847054604E06C2F1AD04FF4D5
:1006B000807006430DB3A5F14100192802D82035FA
:1006C00046F400664A462946204626604E46FFF715
:1006D0009DFD80B101280BD0F61D26F0070000F12A
:1006E000080956E74020E4E78020D8E70020D6E755
:1006F00006F104094DE7284652E7206ABDE8F09F5D
:10070000C63500004FF0000200B5134694469646E9
:10071000203922BFA0E80C50A0E80C50B1F1200114
:10072000BFF4F7AF090728BFA0E80C5048BF0CC0C2
:100730005DF804EB890028BF40F8042B08BF704720
:1007400048BF20F8022B11F0804F18BF00F8012B92
:10075000704770477047704709684A0501D540B235
:100760007047C905FCD500B2704709684A0501D534
:10077000C0B27047C905FCD580B270472DE9F0477B
:100780000D4699469246044600F124080168880601
:1007900004D5E06921F01001216000E00120A842A9
:1007A00001DD471B00E00027A1697A1902EB09006F
:1007B000081AA0612078C00602D42046FFF752FE36
:1007C000002608E0D4E901211AF806009047206AC3
:1007D000401C761C20624E45F4DB2078C0060AD50A
:1007E0002046FFF73FFE06E0D4E901213020904784
:1007F000206A401C2062381EA7F10107F4DC07E0E4
:10080000D4E9012118F805009047206A401C2062B5
:10081000281EA5F10105F3DC2046FFF739FE2078FC
:10082000000602D50220BDE8F0870120FBE7116831
:100830000268006A530501D508700AE0D30501D5A6
:10084000088006E0130603D5C217C1E9000200E0E4
:10085000086001207047000001694A1C02610878A5
:10086000704700B58FB0CDE90131002105910549F0
:100870007944CDE9031011466846FFF77FFE0FB0BB
:1008800000BD0000E5FFFFFF0A6802F8010B0A60E7
:10089000704710B5436913B1AFF3008001E0FFF773
:1008A00008FE012010BD127800F124010A70002218
:1008B0004A700122EDE711684FF0FF32E9E70000CE
:1008C0002DE9FF5F15468A460446DFF8AC80F84400
:1008D0000027D8E900103E46CDE9001010E03AF8B4
:1008E00016106A4602A800F0F1FC411C07D02178DE
:1008F000890603D5E269391891420DD80744761C60
:100900002078800602D5E069B84205DDAE42E6DB1C
:100910003AF816000028E2D1A069C01BA061204669
:10092000FFF7A0FDD8E90010CDE90010002017E086
:100930003AF818106A4602A800F0C8FCB0F1FF3F70
:1009400081460BD000250DF1080B05E0D4E901210B
:100950001BF8050090476D1C4D45F7D308F10100C9
:10096000B0428046E4DB206A384420622046FFF72C
:100970008FFDBDE8FF9F0000963200002DE9F04199
:100980008046D21D22F007020025D2E90002F52997
:1009900015A614D0011E72F1000106DA0023D0EB77
:1009A000030063EB020211A608E0D8F800108B07E1
:1009B00001D50FA602E0490701D50EA60125114673
:1009C000002408F1240704E000F098F830323A558A
:1009D000641C50EA0102F7D12B46324621464046BC
:1009E000BDE8F041FFF7CABE000000002D00000086
:1009F0002B0000002000000030B4002100F124048E
:100A000008E002F00705D208303542EA4372DB08FD
:100A10006554491C52EA0305F3D10468002310A26F
:100A2000250707D5A40600D421B1C46901230DA26E
:100A3000641EC46130BCFFF7A1BE10B50446214658
:100A40001068FFF792FE02462046BDE810400023E2
:100A5000D2E7D21D22F00701D1E90023CCE7000044
:100A60000000000030000000F0B40D4601880905C8
:100A700002D5214C7C4402E01F4C7C440E34002102
:100A800000F1240608E002F00F071209E75D42EAD0
:100A900003721B097754491C52EA0307F3D1027809
:100AA0000023120704D5702D06D009B1022311349A
:100AB0002246F0BCFFF762BE01231034F8E770B5A0
:100AC00004460D4621461068FFF74FFE02462946B0
:100AD0002046BDE870400023C6E7D21D22F0070380
:100AE000D3E90023C0E70368126843F020030360E2
:100AF0000823C3610023B7E7F830000030B5B0F138
:100B00000A024FEA900E71F100034EEA817EB0EBCB
:100B10000E0061EB91014FEA101E4EEA017E10EBD0
:100B20000E0041EB11114FEA102E4EEA016E10EB50
:100B30000E0041EB11214FEA104E4EEA014E10EB30
:100B40000E0041EB1141401841F100014FEAD00085
:100B500040EA41704FEAD10110EB80054FEA810471
:100B600044EA907444EB01046D1944EB0404521BF5
:100B7000A3414FF0000348BF0A3200D530BD401CEE
:100B800041F1000130BD70472DE9FF4F0C461E4674
:100B90004FF0FF378BB0D2E90001DDF860800A909A
:100BA0008A46C1F30A5505B93D46002108464FF073
:100BB0000000BAF1000F00F4400005DA00EB8000FD
:100BC0004FF4400101EA50004FEA9059B9F1010F8A
:100BD00000DDB9460A9850EA4A000ED044F610509B
:100BE000A5F2FF3545432F14B8F1000F1ED0754212
:100BF000291E1EDDC9F100021CE0B8F1010F4FF003
:100C0000000001D0302103E0F24305E02154401CF4
:100C1000B042FBDB30460022002121540B99C1F881
:100C20000880C1E900200FB0BDE8F08FBD1B6D1C2E
:100C3000DEE74A4600DA694206A800F0D9FB06ABB7
:100C400093E8070003AB83E8070050460A9900F0D9
:100C500096FC8DE80700A0F500501F38009003981F
:100C6000002D0ADD42F21F014A460844002303A971
:100C70000390684600F0FFFE09E0A0F500504A46E8
:100C80001F38002303A90390684600F009FF8DE890
:100C900007000004000C03D04FF0FF30410800E0D3
:100CA0001046B8F1000F03D00022009215461EE056
:100CB000751E05D4FFF722FF303262556D1EF9D53F
:100CC000B3460122084302D000227F1C04E02078B2
:100CD000302801D100227F1E002A099784D01DE010
:100CE000112D07DAFFF70AFF303262556D1C50EA0A
:100CF0000102F5D1084302D00098C8B10EE00021EE
:100D0000681E05E0235C625C63542254401E491C4B
:100D10008142F7DBAB46A81B401E0990002004F877
:100D20000B000B98099AC0F80880C0E9002B7AE7FD
:100D300011264FF0000857E72DE9F04F884604468A
:100D4000D21D22F0070191B0D1E90001CDE90A01DD
:100D500002F043F902460B98C00F01D02D2007E0A6
:100D60002068810701D52B2002E0202101EAC00084
:100D7000032A099001D0072A05DB03464146204695
:100D800000F0F6FA0BE12078800601D5E06900E07A
:100D90000620B8F1650F814606D0B8F1660F18D06D
:100DA000B8F1670F70D131E00020B9F1110F009058
:100DB00001DB112301E009F101030AAA01A90CA832
:100DC000FFF7E2FEDDE90C70002609F1010583461C
:100DD00047E001204B4600904FF000470AAA01A9C6
:100DE0000CA8FFF7D1FEDDE90DB00C995D46002699
:100DF00010B909F101000D18B9EB050003D4C0F1D9
:100E0000FF3609F10105A5EB09002BE0B9F1010F4F
:100E100001DA4FF001090020B9F1110F00904846A6
:100E200001DD112300E003460AAA01A90CA8FFF77F
:100E3000ABFEDDE90C704D460026834620780007A6
:100E40000AD4AB4500DA5D4601A8012D04DD411945
:100E500011F8011C302907D04F4502DA17F1040FB1
:100E600004DA012082460FE06D1EEEE7002F02DC5F
:100E7000ED1B3E4403E0781CA84200DD7D1CB81B3E
:100E800000F1010A4FF000472078000703D4AA457B
:100E900001DB4FF0FF3A0021B7F1004F0DF143089D
:100EA0008DF8431024D002202B23002F01DA7F423B
:100EB0002D230A21021EA0F1010000DC5FB197FB87
:100EC000F1FC97FBF1F201FB1C7C17460CF1300C96
:100ED00008F801CDEEE7A8F10100037021880905AB
:100EE00001D5452100E06521A0F1010800F8011CB1
:100EF00009980FA9A1EB0807FF1D00B101204119B6
:100F000001EBEA70A1693844081A401EA0612078FC
:100F1000C00602D42046FFF7A5FA099828B1D4E903
:100F200001219047206A401C20622078C00622D50B
:100F30002046FFF797FA1EE0002E04DBB34502DDE2
:100F400001A8805D00E03020D4E901219047206AAB
:100F5000401C2062761CAAF101005FEA000A0AD157
:100F600000F002FAC0680168405CD4E901219047B2
:100F7000206A401C2062281EA5F10105DCDC07E088
:100F8000D4E9012118F8010B9047206A401C206227
:100F9000381EA7F10107F3DC2046FFF779FA03209A
:100FA00011B041E62DE9F04F04460D46D21D22F066
:100FB000070089B0D0E900974846394602F00DF89D
:100FC0000246F80F01D02D2307E02068810701D5E4
:100FD0002B2302E0202101EAC0038DF820300BB161
:100FE000012000E00020032A824601D0072A04DB0A
:100FF0002946204600F0BCF93FE12078800601D464
:101000000D2500E0E569C7F30A560D2D49DA0021E8
:101010004FEA175B08464FF00000002F00F4400035
:1010200007DA00EB80004FF4400100EBD07001EADA
:1010300060008115012901DD4FF0FF3100224FEAE8
:10104000850CBCF1180F06D31346ACF118004FF015
:101050008052C24003E04FF4801323FA0CF30CF1EA
:101060000C0CBCF1200F04D3ACF1200C09FA0CF0ED
:1010700001E007FA0CF000294FF0004801DD18B933
:101080000FE00ED140450CD319EB02095F4121B9A5
:10109000404502D19F4329EA0209BBEB175F00D00C
:1010A000761C2088000502D57B48784402E07A4807
:1010B0007844193808AA302302F80A30037C0AF170
:1010C0000101002E0AF1020A53546A4602DC4FF075
:1010D000300101E04FF031014FF001088DF80010B0
:1010E00002D0A6F2FF3603E059EA470100D06B4E6A
:1010F000002D02DC2178090704D54FF002082E21CB
:101100008DF80110C44600210BE0C7F303433F01F3
:10111000C35C491C6D1E02F80830052908F101085E
:1011200001DA002DF1DC00210CE000EB1973491C01
:101130001B786D1E082902F808304FEA091908F1DA
:10114000010801DA002DF0DC21688B0602D516E0DB
:10115000A8F10108E04505DD02EB080313F8013CA6
:10116000302BF5D0B8F1000F09DD02EB080313F8BE
:10117000013C2E2B03D1090701D4A8F10108002D51
:1011800005DD3E2102F808106D1E08F10108407CC3
:10119000002E02F8080008F1010804DA2D2076423A
:1011A00002F8080002E02B2002F808000A214FF4A0
:1011B0007A70864208F101080BDB96FBF0F33033BE
:1011C00002F8083096FBF0F308F1010800FB136603
:1011D00001E0642E0CDB642096FBF0F3303302F860
:1011E000083096FBF0F308F1010800FB136601E0FC
:1011F0000A2E06DB96FBF1F0303002F8080008F109
:10120000010896FBF1F001FB1060303002F8080095
:10121000A16908F1010808EB050202EB0A00081AAF
:10122000A0612078C00602D42046FFF71BF9216A8E
:1012300008AE01EB0A00206204E0D4E9012116F8AF
:10124000010B9047BAF1010AF7D22078C00602D507
:101250002046FFF707F96E4609E016F8010B3E2815
:101260000FD0D4E901219047206A401C2062B8F1D8
:101270000108F2D22046FFF70BF909B00320BDE8C0
:10128000F08F206A2844206203E0D4E90121302055
:1012900090476D1EEBD3F8E7FD2A000002FCFFFF2C
:1012A00010B5436913B1AFF3008001E0FFF708FB0D
:1012B000012010BD128800F1240182840022C28422
:1012C0000122EDE711684FF0FF32E9E770B51646ED
:1012D0000C46054600F040F8036893F80101012828
:1012E00006D0FF2C0FD8185D68B101202C7070BD9E
:1012F000D3F807013246214603F207130344284678
:10130000BDE8704018474FF0FF3070BD754600F0E3
:10131000EBF8AE4605006946534620F007008546C7
:1013200018B020B5FEF7ECFFBDE820404FF00006F6
:101330004FF000074FF000084FF0000B21F00701BD
:10134000AC46ACE8C009ACE8C009ACE8C009ACE800
:10135000C0098D467047000010B500F005F8001D6B
:1013600010BD00BF812700000048704744010020E5
:101370002DE9F0411F46044603260168072A01F4BF
:10138000006004DB08B116A505E016A503E008B16E
:1013900015A500E015A521F010002060A069C01E71
:1013A000A0610FB1401EA0612046FFF75BF84FB16E
:1013B000D4E9012138469047206A401C2062C01CB5
:1013C000206206E0206AFAE7D4E9012115F8010B52
:1013D0009047761EF8D22046FFF75AF8BDE8F08114
:1013E0004E414E006E616E00494E4600696E6600C9
:1013F0002DE9F047814616468AB0354878440DC835
:101400008DE80D0032487844801C03AC0DC884E898
:101410000D0041F69B300844372190FBF1F290FB20
:10142000F1F5A5F1800501FB12041B3C02D56442D5
:10143000012000E00020DFF898A080460027FA4451
:10144000AAF1BE0A0EE0E0070AD03246684607EB72
:10145000470101230AEB810100F022FB8DE8070020
:1014600064107F1C002CEED1194F7F44AE3F19E071
:10147000E80715D007EB04100DF1180A90E80E00EC
:101480008AE80E00C068F04201D1981908903246EF
:10149000012306A903A800F003FB03AB83E80700C0
:1014A0006D10641C002DE3D14FF0010332466946F4
:1014B000B8F1000F03A802D000F0DDFA01E000F05F
:1014C000EFFAC9E90001C9F808200AB0BDE8F087C1
:1014D0003C28000010B50446AFF300802046BDE86C
:1014E0001040FEF7F8BE00000048704724010020BD
:1014F0004FF0013C50F8042B51F8043B9A4221D1A3
:10150000A2EB0C03934313EACC1317D150F8042B2E
:1015100051F8043B9A4215D1A2EB0C03934313EA12
:10152000CC130BD150F8042B51F8043B9A4209D14B
:10153000A2EB0C03934313EACC13DBD04FF0000073
:10154000704700BFD01A01BAB1FA81F101F0180159
:1015500022FA01F0CB40C1F12001DBB2C0B2C01AC7
:101560002CFA01F3D11A914311EAC311E6D1704765
:1015700001491820ABBEFEE72600020070475FEA73
:10158000400C08BF91F0000F4FEA8C234FEAC122B4
:1015900043EA51514FEA1C5018BF00F5F0404FEAA2
:1015A000300018BF41F000415FEA6C5C00F0298018
:1015B000BCF1FF3F08BF40F080407047130C06BFEE
:1015C00012044FF0100C4FF0000C130E04BF120267
:1015D0000CF1080C130F04BF12010CF1040C930F53
:1015E00004BF92000CF1020CD30F04BF52000CF1A7
:1015F000010C11464FF00002A0F11F00A0EB0C00FF
:10160000704711F0004F08BF704731F000413FF4C0
:10161000D5AF0B0C06BF09044FF0100C4FF0000CB7
:101620000B0E04BF09020CF1080C0B0F04BF0901DB
:101630000CF1040C8B0F04BF89000CF1020CCB0FD2
:1016400004BF49000CF1010CCCF12003A0EB0C000D
:1016500022FA03F302FA0CF241EA030100F101005D
:10166000704720F07F4C80EA030023F07F47ACEB0B
:10167000070303F57C5300F0004003F1FF032DE95D
:1016800080494FEA154B09B44FEA144325EA0B4E43
:1016900024EA03480FF2042606EB132749083E7894
:1016A0005FEA320203FB0667C7F5000707FB06F691
:1016B0004FEA54374FEAD64606F1020607FB066C9E
:1016C000CCF1005C4FEA1C472CEA074C07FB06F400
:1016D0000CFB06F504EB15464FEA961634BF0020C6
:1016E0004FF000404FEAD13706FB07FC4FEA1C4C95
:1016F0000CFB0BF7D21B03FB0CF761EB07010CFB98
:101700000EF7B0EB074072EB17420CFB08F734BF43
:10171000A2EB0742B2EB074261EB17414FEA0C44E0
:101720004FEA910706FB07FC4FEA1C4C0CFB0BF73A
:10173000B0EBC74072EB573203FB0CF734BFA2EBA0
:10174000C742B2EBC74261EB57310CFB0EF7B0EB6F
:10175000C70072EB57720CFB08F734BFA2EBC7024D
:10176000B2EBC70261EB5771039F4FEA816141EA17
:10177000921104EBCC044FEAD1374FEA826206FBA8
:1017800007FC42EA90124FEA80604FEA1C4C0CFBC7
:101790000BF7D21B03FB0CF761EB07010CFB0EF7F9
:1017A000B0EB074072EB17420CFB08F734BFA2EB1B
:1017B0000742B2EB074261EB17414FEA8C554FEA03
:1017C000910704EB9C2406FB07FC4FEA1C4C0CFB26
:1017D0000BF7B0EBC74072EB573203FB0CF734BF8B
:1017E000A2EBC742B2EBC74261EB57310CFB0EF7DD
:1017F000B0EBC70072EB57720CFB08F734BFA2EBDB
:10180000C702B2EBC70261EB577115EB4C254FEAEB
:10181000816141EA92114FEA82624FEAD13742EA8E
:10182000901206FB07FC44F100044FEA80604FEA87
:101830001C4C0CFB0BF7D21B03FB0CF761EB0701F5
:101840000CFB0EF7B0EB074072EB17420CFB08F7EE
:1018500034BFA2EB0742B2EB074261EB174115EB35
:101860001C154FEA813141EA92414FEA823242EA45
:1018700090424FEA80304FEA0C7644F1000448EA87
:1018800003434EEA0B484FF0000EB2EB080C71EB2D
:10189000030724BF624639464EEB0E0E4FF0000B95
:1018A0000018524149414BEB0B0BB2EB080C71EBAA
:1018B00003077BF1000B24BF624639464EEB0E0E48
:1018C0004FF0000B0018524149414BEB0B0BB2EBB0
:1018D000080C71EB03077BF1000B24BF624639460D
:1018E0004EEB0E0E51EA020718BF46F0010616EB4A
:1018F0000E7655F1000254F1000103D5BDE88901CF
:10190000BDE80088BDE88901BDE80048B61952412C
:1019100041EB0101A3F10103704780807F7E7D7C54
:101920007B7A7978777676757473727171706F6E71
:101930006E6D6C6C6B6A6A6968686766666564641C
:10194000636362616160605F5F5E5E5D5D5C5C5BA6
:101950005B5A5A5959585857575656555555545415
:10196000535352525251515050504F4F4F4E4E4D73
:101970004D4D4C4C4C4B4B4B4A4A4A4949494848BF
:1019800048474747474646464545454444444443FF
:1019900043434342424242414141002B9C4630D4A2
:1019A00077002BD01CB54FEA370703B44FF0100077
:1019B0004FF01001BAF1000F06D0BCF1000FDCBFF0
:1019C00040F0080040F008014FF000000FBCBDE8F7
:1019D00010400BF1010BBBF1010F08BF5FEA1707C5
:1019E00022BF12F1010211F101014FF0004143F158
:1019F000000300F0004043EA00007047F9D35708A5
:101A0000D0E746EA064613F1400F4FEA16461FDDBF
:101A100013F1200FDFBF16430A46002120335B423B
:101A2000BED0C3F1200746EA064602FA07F74FEA9E
:101A3000164646EA0706C3F1200722FA03F201FA26
:101A400007F721FA03F14FF0000342EA0702A7E784
:101A500046EA020646EA06464FEA164646EA010606
:101A6000BCBF46EA0646360C4FF000034FF00002BA
:101A70004FF0000194E72DE9804C9A46934670B4EC
:101A800091E8380007C831EA400C48BF34EA430CFB
:101A900003D5FFF7E6FDFFF780FFF0BCBDE8008C43
:101AA0002DE9804C9A46934670B491E8380007C8F7
:101AB00010F0804F08BF13F0804F03D100F005F8FD
:101AC000FFF76BFFF0BCBDE8008C20F07F4780EA99
:101AD000030023F07F4C07EB0C03A3F57C5300F0CD
:101AE0000040A3F1FE0392F0000F00F0B38095F0E8
:101AF000000F00F077802DE901494FEA11404FEACD
:101B0000144621EA004800FB06FC24EA064708FBCD
:101B100006F607FB08F800FB07F718EB06484CEB46
:101B2000164C4FEA124B18EB07484FEA15464CEBA0
:101B3000174022EA0B4E0BFB06FC25EA06470EFB7C
:101B400006F607FB0EFE0BFB07F71EEB064E4CEBF3
:101B5000164C4FF000061EEB074E4CEB174B18EBE4
:101B60000B0840F1000018EB0E0B58EB000840F199
:101B700000008F1A4FF000013CBFC943661B14BF21
:101B8000B5EB040C00213CBFC943F61B4FEA1744D8
:101B90004EEA8E0E27EA04454FEA1C4704FB076213
:101BA0002CEA074C05FB07F70CFB05F604FB0CFCC5
:101BB00016EB074642EB174216EB0C4642EB1C4273
:101BC0001BEB060658EB0202414146EA9E0601D590
:101BD000BDE80189B619524141EB0101A3F10103AE
:101BE000BDE801894FEA14454FEA114724EA05464A
:101BF00021EA074C05FB07F406FB07F70CFB06F18F
:101C000005FB0CFC11EB074144EB17444FEA12476C
:101C100011EB0C4144EB1C4422EA074C05FB07F294
:101C200006FB07F70CFB06F605FB0CFC16EB07465C
:101C300042EB174216EB0C4642EB1C456A1854F176
:101C4000000148BF7047B619524141EB0101A3F1B1
:101C50000103704795F0000F37D04FEA11424FEA69
:101C6000144721EA024624EA074C02FB07F106FB6F
:101C700007F70CFB06F402FB0CFC14EB074441EBEA
:101C800017414FEA154714EB0C4441EB1C4125EA80
:101C9000074C02FB07F506FB07F70CFB06F602FBF9
:101CA0000CFC16EB074645EB174516EB0C4645EBCF
:101CB0001C42121951F1000148BF7047B619524138
:101CC00041EB0101A3F1010370474FEA14454FEACC
:101CD000114724EA054621EA074C05FB07F106FBFC
:101CE00007F70CFB06F24FF0000605FB0CFC12EBAD
:101CF000074241EB174112EB0C4251EB1C4148BF2C
:101D00007047921841EB0101A3F10103704700F005
:101D10000F01000900EB800001EB4000C0B27047EA
:101D2000FEE770470A21B0FBF1F201FB1202B0FBA3
:101D3000F1F042EA0010C0B27047000070B50446EE
:101D400000F004F90546601C02D004480078044401
:101D500000F0FCF8401BA042FAD370BD0000002048
:101D60002DE9F84FDFF8B8A1002201240AF1040B95
:101D700003254FF00F090BF1040E00BF0B6804FAA6
:101D800002F63340B34273D10F7907F00307012FF6
:101D900001D0022F16D187684FEA420805FA08FCE5
:101DA00027EA0C07D1F80CC00CFA08FC4CEA070C27
:101DB000C0F808C04768B7430E79C6F300169640CE
:101DC0003E4346600E79F643B6070DD0C76856000D
:101DD00005FA06FC27EA0C07D1F808C00CFA06FC45
:101DE0004CEA070CC0F80CC00E7906F00306022E70
:101DF00010D1D60800EB8608D8F8206057074FEAC4
:101E0000D76C09FA0CF7BE430F6907FA0CF7374392
:101E1000C8F8207006684FEA420C05FA0CF7BE437A
:101E20000F7907F0030707FA0CF7374307604E688E
:101E300016F4403F6DD03B4E376847F4804737601B
:101E4000366822F0030706F480460096364E07EB0C
:101E5000060CDCF8086897073F0F09FA07F826EA2E
:101E60000806DFF8C880404503D14FF000081EE0A7
:101E70004FE0DFF8BC80404502D14FF0010816E08A
:101E8000DFF8B080404502D14FF002080FE0DFF8E4
:101E9000A880404502D14FF0030808E0DFF89C809D
:101EA000404502D14FF0040801E04FF0070808FA5E
:101EB00007F848EA0608CCF80888DAF800605746C0
:101EC000D1F804C09E435FEACC3C00D51E433E607F
:101ED000DBF800605F46D1F804C09E435FEA8C3CAB
:101EE00000D51E433E60DEF800607746D1F804C09E
:101EF0009E435FEACC2C00D51E433E60084F0C3752
:101F00003E68D1F804C09E435FEA8C2C00D51E4386
:101F10003E60521C102AFFF431AFBDE8F88F00007C
:101F2000003C0140443802400030014000000240C3
:101F30000004024000080240000C02400010024071
:101F40000069084000D00120704700000148806807
:101F5000704700000000002070B5040025D094F800
:101F60003D00002520B984F83C50204600F03EFAA0
:101F7000242084F83D002068016821F001010160FF
:101F80002068016841F4004101602068016821F483
:101F90000041016000F0B4FB4D4A6168914201D8F4
:101FA0004C4900E04C49884201D2012070BD4B49A8
:101FB0002368B0FBF1F15E6826F03F060E435E60D9
:101FC0006368934206D94FF4967359434FF47A737A
:101FD000B1FBF3F12368491C1E6A26F03F0631432A
:101FE00019626168914210D84900401EB0FBF1F2BD
:101FF000521CC2F30B02042A01D2042022E0B0FBDF
:10200000F1F0401CC0F30B001CE0A268F2B301EB3E
:10201000C10303EB0116431EB3FBF6F35B1C43F451
:1020200080431B0549D092B301EBC10202EB0111C1
:10203000401EB0FBF1F0401CC0F30B0040F48040A8
:1020400040F400402168CA694CF6FF739A4310437C
:10205000C861D4E9071001432068026822F0C00279
:1020600011430160D4E9030101432068826848F20A
:10207000FF339A4311438160D4E905010843216885
:10208000CA6822F0FF021043C86001E00EE016E0CB
:102090002068016841F0010101602564202084F876
:1020A0003D00256384F83E50002070BD01EB4106E1
:1020B000431EB3FBF6F35B1CB3E70120C2E701EB61
:1020C0004101401EB0FBF1F0401CC0F30B00B7E72C
:1020D000A086010080841E0000093D0040420F00E0
:1020E0002DE9F84F1F4690468A460446DDF82890B1
:1020F000FFF72CFF054694F83D00202875D11923E1
:1021000001226C492046009500F008FE0028F5D118
:1021100094F83C00012868D0012084F83C00206835
:102120000168C90703D1016841F00101016020681D
:10213000016821F400610160222084F83D00102034
:1021400084F83E0000262664C4F824806785608DEC
:1021500020855948E0622B464A465146204600F009
:10216000F3FC002878D1208D544F68B1012814D099
:1021700002282068016816D041F48061016020685F
:1021800041698069009087E0206841698169009118
:10219000016841F4007101607EE02068016821F46B
:1021A00080610160F0E721F48061016020680168CE
:1021B00041F40061E2E7032848D801280AD0022848
:1021C00014D04B46002239462046009500F0A6FD6B
:1021D000D8BB27E02A464946204600F01EFEA0BB99
:1021E00020680069616A08704DE061E04B4600229A
:1021F00039462046009500F091FD30BB206801680B
:1022000041F40071016020680069616A0870606AC9
:10221000401C6062218D491E2185618D491E6185AA
:1022200021682EE02068016821F480610160206847
:102230000069616A0870606A401C6062208D401EFF
:102240002085608D401E6085D0E705E02A4649461E
:10225000204600F0E2FD10B10120BDE8F88F2068B3
:102260000069616A0870606A401C6062218D491EC5
:102270002185618D491E618521684A69D2435207D3
:102280000AD409690170606A401C6062208D401E9A
:102290002085608D401E6085208D00288BD12020F8
:1022A00084F83D0084F83E6084F83C600020D4E768
:1022B0000220D2E7020010000000FFFF040001002E
:1022C0002DE9F84F1F4690468A460446DDF82890CF
:1022D000FFF73CFE054694F83D0020287FD11923E6
:1022E000012240492046009500F018FD002876D1D3
:1022F00094F83C00012872D0012084F83C0020684A
:102300000168C90703D1016841F00101016020683B
:10231000016821F400610160212084F83D00102053
:1023200084F83E0000262664C4F824806785608D0A
:1023300020852D48E0622B464A465146204600F053
:1023400079FC90B9206841698069009036E02A469E
:102350004946204600F094FD50B1206C042804D179
:102360002068016841F4007101600120BDE8F88F28
:10237000606A216800780861606A401C6062618D53
:10238000491E6185218D491E89B2218522685369C4
:10239000DB435B070BD451B100781061606A401CCD
:1023A0006062608D401E6085208D401E20852A461B
:1023B0004946204600F08CFC0028CED1208D002814
:1023C000C5D154F83D0B016841F400710160202033
:1023D00004F81E09E67766770020C7E7FFE70220CA
:1023E000C4E70000020010000000FFFF2DE9F041EB
:1023F00086B0044614216846FEF784F923682A4C07
:10240000DFF8A0C000252849122603270422274808
:102410001034634518D10B6843F002030B60096860
:10242000029501F002010591C021CDE90016CDE928
:1024300003726946FFF794FC206840F400102060A6
:10244000206800F4001028E0DFF864C0634525D15F
:102450000B6843F002030B600968029501F002016A
:1024600005914FF48061CDE90016CDE9037269460C
:102470008046FFF775FC0820CDE90006029509208B
:10248000CDE9037069464046FFF76AFC206840F4D6
:1024900080002060206800F48000059006B0BDE850
:1024A000F081000000540040303802400004024037
:1024B00000580040024881680278114481607047EA
:1024C000000000200B4810B5016841F40071016064
:1024D000016841F480610160016841F4807101602C
:1024E000032000F061F80F2000F006F800F024F857
:1024F000002010BD003C024070B50D4D04464FF465
:102500007A712878B1FBF0F00A490968B1FBF0F064
:1025100000F0EEFA48B9102C07D200222146501ED6
:1025200000F022F800206C6070BD012070BD00003A
:10253000000000200C0000200A4808B5016841F4A2
:1025400080410160006800F4804000900548001F51
:10255000016841F080510160006800F080500090F7
:1025600008BD000044380240F0B40E4B1B680C4616
:10257000C3F30223C3F10705042D00D90425191D57
:10258000072901D2002300E0DB1E012606FA05F12F
:10259000491E214099409E40761E16403143F0BCB2
:1025A00000F033BD0CED00E0064900F007020868BA
:1025B0004FF6FF03184040EA0220034A1043086028
:1025C000704700000CED00E00000FA052DE9F0472F
:1025D0000E46050065D0DFF81481D8F80000F7B288
:1025E00000F00700B04207D288F80070D8F8000069
:1025F00000F00700B04254D128683D4C810712D545
:10260000400703D5206840F4E05020602878000798
:1026100003D5206840F4604020602068A96820F05D
:10262000F000084320602878C0072DD03049686842
:102630000839012812D0022813D0032811D00968C4
:10264000890700292DDA216821F003010143216067
:10265000FFF77CFC814641F2883A0EE00968890365
:10266000EFE709688901ECE7FFF770FCA0EB0901CF
:10267000514502D90320BDE8F0872068696800F061
:102680000C00B0EB810FEFD1D8F80010404601F0FC
:102690000701B14207D90770006800F00700B04297
:1026A00001D00120E7E72878400705D52068E968D0
:1026B00020F4E050084320602878000706D5206801
:1026C000296920F4604040EAC100206000F028F849
:1026D0002168084AC1F30311515CC84006490860EB
:1026E00006480068FFF708FF0020C4E7003C0240EE
:1026F00008380240223B00080C00002004000020A3
:102700000448054900680968044AC1F38221515C04
:10271000C84070470C00002008380240323B0008D7
:10272000154810B5006810F00C02144813D0144975
:10273000042A0FD0082A0ED10F4C241F22682368C8
:1027400002F03F025B0207D52068C0F38810A0FBAF
:10275000010106E0084610BD2168C1F38811A1FB04
:1027600000010023FDF7DEFD2168C1F30141491C92
:102770004900B0FBF1F010BD083802400024F4001D
:1027800040787D012DE9F84F04006ED02078DFF805
:102790004C93C007A9F104054AD009F1040001686F
:1027A000C1F38101012908D00068C0F3810002282B
:1027B0000AD1D9F80000400206D52868800337D531
:1027C00060680028E1D033E06068B0F5803F10D049
:1027D000B0F5A02F286810D020F480302860286839
:1027E00020F4802028606068A8B1FFF7AFFB0646A0
:1027F0000DE0286840F48030F4E740F48020286041
:10280000F7E700BFFFF7A2FB801B642873D8286896
:102810008003F7D50CE0FFF799FB064605E000BF03
:10282000FFF794FB801B6428F0D828688003F7D456
:102830002078DFF8AC8280074FF0000A3ED5A74829
:10284000001D016811F00C0F08D00068C0F3810072
:1028500002280BD1D9F80000400207D4286880076D
:1028600016D5E068012800D112E033E1E068B8B184
:102870000120C8F80000FFF769FB064605E000BF2D
:10288000FFF764FB801B0228C0D828688007F7D5B3
:102890002868216920F0F80040EAC10028600DE0B6
:1028A000C8F800A0FFF752FB064604E0FFF74EFB16
:1028B000801B02281FD828688007F7D420780007DB
:1028C00022D5864F87486169703771B10121016057
:1028D000FFF73CFB064604E0FFF738FB801B0228AD
:1028E00009D838688007F7D50EE0C0F800A0FFF7D8
:1028F0002DFB064605E082E0FFF728FB801B02283F
:102900007DD838688007F7D42078400768D5DFF88D
:10291000CCB100270BF13C0BDBF80000C0000BD45E
:10292000DBF8001041F08051CBF80010DBF800001C
:10293000012700F0805000906B4E3068C00510D425
:10294000306840F480703060FFF700FB009005E0D5
:10295000FFF7FCFA0099401A022850D83068C005E9
:10296000F6D55E4EA0686C3601280FD00528306879
:1029700010D020F001003060306820F0040030609A
:10298000A068B8B1FFF7E2FA00900FE0306840F0BD
:102990000100F4E740F004003060F7E7FFF7D6FAF3
:1029A0000099411A41F28830814266D83068800728
:1029B000F4D50EE0FFF7CAFA009007E0FFF7C6FA79
:1029C0000099411A41F28830814256D83068800718
:1029D000F4D42FB1DBF8001021F08051CBF80010B7
:1029E000A069C8B33D49091D0968C1F381010229E5
:1029F0004AD00228504607D0C8F8600000E03CE00A
:102A0000FFF7A4FA04463BE04746C8F86000FFF72A
:102A10009DFA064605E000BFFFF798FA801B0228E2
:102A20002BD828688001F7D4D4E907010843A16AAC
:102A30002E4A490802EB0141626A41EA82110843C9
:102A400094F82C1040EA0161C9F8001001203866A2
:102A5000FFF77CFA044606E03EE000BFFFF776FA97
:102A6000001B022809D828688001F7D534E000BF90
:102A7000FFF76CFA001B022802D90320BDE8F88F8B
:102A800028688001F4D427E00128F7D0D9F80000A5
:102A9000E26900F4800191421CD1226A00F03F01FA
:102AA000914217D147F6C071626A0140B1EB821FB3
:102AB00010D1A26A4FF0FF3300F4403103EB520211
:102AC000B1EB024F06D194F82C1000F07060B0EB1F
:102AD000016F01D00120D1E70020CFE70438024088
:102AE00000004742800E4742007000400000FFFF98
:102AF00010B5401EB0F1807F01D3012010BD4FF012
:102B0000E02460610F21601700F07FFA0020A061CF
:102B100007202061002010BDFEE701684A69D2430A
:102B200052050FD46FF480624A61002140F8301FD3
:102B3000202242738173026942F004020261017330
:102B400001207047002070472DE9F84F0446C06A05
:102B50001E4693460D4621680A6842F480620A6068
:102B6000082807D0012805D010F5803F02D0206B3F
:102B7000112804D12068016841F4807101604FF090
:102B800001195B46002249462046009600F0C6F82F
:102B90004FF4007840B120680068C00501D5C4F842
:102BA00040800320BDE8F88F2069DFF884A0B0F5ED
:102BB000804F0FD00620216800EAD51747F0F000BB
:102BC000086133465A460AF10601204600F0DAF859
:102BD00058BB03E0E8B240F001001CE02168E8B215
:102BE000086133465A465146204600F0CBF8E0B91A
:102BF0002068416981690091016841F48071016038
:102C00005B46002249462046009600F087F80028DF
:102C1000C1D147F0F1002168086133465A46514658
:102C2000204600F0AFF80028BCD00120BAE7000031
:102C300002000100F8B50446C06A1E460D4617465C
:102C4000082807D0012805D010F5803F02D0206B5E
:102C5000122804D12068016841F480710160134694
:102C600000224FF001112046009600F057F840B1C5
:102C700020680068C00502D54FF40070206403206E
:102C8000F8BD2069B0F5804F0ED00620216800EA1B
:102C9000D51040F0F000086133463A460B49204613
:102CA00000F070F878B902E005F0FE0000E0E8B24C
:102CB00021680861054933463A46891F204600F0DD
:102CC00061F80028DCD00120F8BD000008000100F8
:102CD00070B516460D4604460DE02046FFF71DFF71
:102CE00008B1012070BD681C05D0FFF72FF9801BCB
:102CF000A84207D835B120684069C0434007ECD4EA
:102D0000002070BD002044F8300F20216173A073B3
:102D1000216941F0200121612073E2E72DE9F047AC
:102D20001E4690460D460446C1F30747DDF8209045
:102D300008E0701C06D0FFF709F9A0EB0900B042CB
:102D40000FD876B12068012F18D0806925EA0000DD
:102D50000004000C14D000214145EAD00020BDE859
:102D6000F087002044F8300F20216173A07321699F
:102D700041F02001216120730120F0E74069E5E77F
:102D80000121E9E72DE9F0479A4691460E460446AF
:102D900000254FF02008C1F3074725E0206840696F
:102DA000C043400514D42068016841F400710160FB
:102DB00021686FF480604861256384F83D8084F861
:102DC0003E50206C40F00400206484F83C501FE02A
:102DD000B9F1FF3F08D0FFF7B9F8A0EB0A01494568
:102DE0000CD8B9F1000F09D02068012F13D08069E9
:102DF00026EA00000004000C0BD0CFE744F8305F57
:102E000084F80D80A573206940F0200020612573AF
:102E10000120BDE8F0874069EAE72DE9F04100258F
:102E200090460E460446202717E04069C043C0067E
:102E30000CD454F8301B6FF01000486144F810595E
:102E40006777A577206A2062257717E0FFF77EF87D
:102E5000A0EB0800B04208D83EB120684169C943E0
:102E60004906E2D40020BDE8F08144F8305F677382
:102E7000A573206940F02000206125730120F2E74E
:102E800070B516460D4604460DE02046FFF745FE98
:102E900008B1012070BD681C05D0FFF757F8801BF2
:102EA000A84207D835B120684069C0430006ECD479
:102EB000002070BD002044F8300F20216173A07302
:102EC000216941F0200121612073E2E700B587B05C
:102ED00014216846FDF716FC12480021026842F0F2
:102EE00080020260026802F080020592026842F0ED
:102EF00001020260026802F001020592026842F0DB
:102F000002020260006800F0020005900720CDE98F
:102F100000010120029069460348FEF721FF07B037
:102F200000BD00003038024000000240FEE7FEE72E
:102F300070477047FFF7BEBA30B593B0302168468E
:102F4000FDF7E0FB14210CA8FDF7DCFB1C48002476
:102F5000016841F080510160006800F080501190DC
:102F60001848016841F4404101600068022500F4FE
:102F70004040119001200390102004900095069588
:102F80000820CDE907406420CDE9090504200B9015
:102F90006846FFF7F7FB08B172B6FEE70F20CDE9F0
:102FA0000C054FF48050CDE90E4003210CA810947D
:102FB000FFF70CFB002801D072B6FEE713B030BD5E
:102FC00040380240007000400248016841F470013E
:102FD0000160704788ED00E0FEE703B4019841000E
:102FE000009850EAC12018BF04204A0D18BF40F0D5
:102FF000010040F2FF72B2EB515F08BF40F00200E7
:10300000012808BF052002B070470907090E0028F3
:1030100004DB00F1E02080F80014704700F00F009E
:1030200000F1E02080F8141D704730380A2801D2E2
:10303000012070470020704770B5344C054604F1FC
:1030400018002178092960D2DFE801F05F050B5FE5
:10305000121E3B424C002D48002217212B461830EF
:1030600033E02B4600223B21401C00F0A7FC24E06B
:1030700081790446407901F5FA6100F0EFF9012207
:1030800041B22B46201D20E004462B4600220C2195
:10309000401D00F093FCA179607901F5FA6100F020
:1030A000DDF92179814200D920711848183000F0EB
:1030B0007DFB1648183000F079FBBDE8704000F049
:1030C000BBBC2B4600226321801D00F077FCF0E79B
:1030D0000E482B4600221721C01C00F06FFCE1783F
:1030E000092008E009482B4600223B21001D00F082
:1030F00065FC2179082000F047FB0448183000F0F7
:1031000055FBBDE8704000F06BBC70BD14000020A2
:103110001FB5FEF71BFF1E4C2169401AC82836D385
:10312000607880B1002060702379E27819A1684648
:10313000FDF782F9607888B121782020072904D032
:1031400008290BD106E00120EDE78DF801008DF88C
:10315000000003E08DF804008DF80300104800F033
:1031600095F9052200210E4800F02CFA0DA10C481B
:1031700000F0C8F905220121094800F023FA6A4647
:103180000AA1074800F0BEF9FEF7E0FE20611FBD6E
:1031900014000020253032643A25303264000000EB
:1031A00018010020414C41524D00000025730000E1
:1031B0000449884204D104490720087000F058BA35
:1031C00070470000F000002014000020084910B5EE
:1031D000884201D1012004E005492831884202D10A
:1031E0000020FFF729FFBDE8104000F041BA0000C1
:1031F000DC0000200D4988420FD10D4800210278E3
:10320000092A0AD2DFE802F005070A090C0E0810A5
:103210000800012100E00221017070470421FBE752
:103220000521F9E70621F7E70821F5E7F00000207E
:1032300014000020084910B5884201D1012004E0A3
:1032400005492831884202D10020FFF7F5FEBDE88C
:10325000104000F00DBA0000DC00002070470000B4
:1032600010B5064800F026F80448283800F022F887
:103270000248BDE81040143800F01CB804010020DA
:1032800010B50A4C01222146094800F087F8084889
:1032900002222146143000F081F82146044804221D
:1032A000BDE81040283000F079B80000000002406E
:1032B000DC00002010B50446018AC068FEF740FE1D
:1032C000E17CC1F38002824207D041F0080160F343
:1032D0008201E174FEF73AFE2060E07C00072ED503
:1032E000FEF734FE2168401A0F2828D3E07C8108BD
:1032F00061F3000000F00101C0F34002E07491426C
:1033000019D0C1073DD0FEF721FE6168401AB0F523
:103310007A7F02D82046FFF76DFFE07C20F0100096
:10332000E0742046FFF79AFF0020A074E07C01467D
:1033300060F34101E174E07C20F00800E074E07C7F
:10334000C0060ED5FEF702FE6168401A40F6B8319D
:10335000884206D32046FFF72BFFE07C20F01000C8
:10336000E074A07C00280BD0FEF7F0FDA168401AA5
:10337000C82805D32046FFF729FFFEF7E7FDA06028
:1033800010BD40F01000E0740120A074FEF7DEFDD7
:103390006060A0602046FFF74DFFC7E710B5C37C13
:1033A00023F008040023036024F01004436044F079
:1033B0000703C374C160028210BD810705D1642177
:1033C000B0FBF1F201FB120141B94FF4C871B0FB3F
:1033D000F1F201FB120008B1002070470120704794
:1033E00070B5104C002541F28836207809280ED29D
:1033F000DFE800F00509090D0909090E0E00BDE816
:10340000704000F08DBA00F005FA03E0257070BD41
:10341000FFF77EFEFEF79AFDA168401AB042F5D292
:1034200070BD00001400002010B50446084800F0EC
:1034300027F927222146074800F031F8092000F03B
:103440004FF9054CE070082000F04AF9207110BDDA
:1034500088000020180100201400002000B50D286D
:1034600012D2DFE800F011070B0709070907070967
:10347000070907001F2000BD1E2000BD0846FFF7FA
:103480009CFF08B11D2000BD1C2000BD10B501210E
:1034900000F053F8BDE810400120FEF74FBC10B516
:1034A0000446416050002070207A332140F004002F
:1034B0002072204600F041F83221204600F03DF80D
:1034C0000520FEF73BFC0121204600F036F80520E0
:1034D000FEF734FC0C21204600F02FF80520FEF703
:1034E0002DFC0221204600F028F80520FEF726FCDE
:1034F0008021204600F021F8204600F073F80820D3
:10350000607210BD0FB4F0B585B007460CAA6846CE
:103510000B99FCF77FFFC5B200246E4605E0315DD4
:10352000384600F02AF8641CE4B2AC4201D2102CF8
:10353000F5D305B0F0BC5DF814FB1CB501F0F0024A
:10354000437A42F004041C438DF8044013438DF881
:1035500005300901427A41F004031A438DF8062030
:10356000427A04230A438DF80720642100910178F0
:10357000406801AAFEF7A4FE1CBD1CB501F0F002D4
:10358000437A42F005041C4342F001028DF80440E6
:1035900013438DF805300901427A41F005031A43BF
:1035A0008DF80620427A41F001010A438DF8072088
:1035B0006421009101784068042301AAFEF780FE8F
:1035C0001CBD000008B506A31B6800931DF8011080
:1035D0001144C9B241F08001FFF7AFFF08BD000000
:1035E00000401454017A21F00101017241F00801F8
:1035F000FFF7A3BFFEF766FFFFF79EFCFFF766FC31
:1036000018481749184D00240160C0E901540E14F0
:10361000C0E9034644618461C4610462FEF79CFC16
:1036200008B172B6FEE70F48104954300160C0E996
:103630000154C0E9034644618461C4610462FEF739
:103640008BFC08B172B6FEE70648FFF7EDFEFFF708
:1036500017FE00BFFFF704FEFFF7C2FEFAE7000007
:103660000054004034000020A086010000580040B3
:1036700010B5FEF76BFC0149886010BD14000020F6
:10368000014908607047000010000020037942796A
:103690008079032A00F5FA6003D20146401E80B209
:1036A00000E0811E1944C2EBC20303EB021209239E
:1036B000B2FBF3F289B211446422B0FBF2F201EBE7
:1036C0009001891A4FF4C872B0FBF2F00844072148
:1036D000001D90FBF1F201FB1200C0B27047000028
:1036E00031B582B0094D64240094012302AAD0218F
:1036F0002868FEF7E5FD0094012301AAD02128687F
:10370000FEF7EEFC9DF804003EBD00001000002016
:103710007FB504461B4E002064258DF80C000095F3
:10372000012303AAD0213068FEF7CAFD00950723C4
:1037300001AAD0213068FEF7D3FC9DF80400FEF703
:10374000E6FAA0709DF80500FEF7E1FA60709DF8BA
:103750000600FEF7DCFA20709DF80700FEF7D7FAA6
:10376000E0709DF80800FEF7D2FA20719DF809007C
:10377000FEF7CDFA60719DF80A00FEF7C8FAA07155
:103780007FBD0000100000201CB502238DF804004E
:103790006420009004488DF8051001AAD02100682B
:1037A000FEF78EFD1CBD0000100000200EB5034684
:1037B00000208DF804009878FEF7B4FA8DF8050023
:1037C0005878FEF7AFFA8DF806001878FEF7AAFAD7
:1037D0008DF80700D878FEF7A5FA8DF8080018795B
:1037E000FEF7A0FA8DF809005879FEF79BFA8DF8DC
:1037F0000A009879FEF796FA8DF80B006420009085
:103800000348082301AAD0210068FEF759FD0EBD28
:103810001000002030B58BB03448FFF737FF334C31
:10382000054633A1A07800906378227806A8FCF7BB
:1038300003FEA1796079CDE900013148237900EBDD
:10384000850230A102A8FCF7F7FDFEF77FFB183CCC
:103850006169401AC82847D3A07880B10020A070C1
:103860002248FFF755FFA07838B321782020072998
:1038700023D2DFE801F022060B2210151A000120E6
:10388000EDE78DF819008DF8180016E08DF81C0092
:103890008DF81B0011E08DF80D008DF80C000CE088
:1038A0008DF810008DF80F0007E08DF815008DF8E9
:1038B00013008DF814008DF8120003220021164821
:1038C000FFF780FE06AA15A11348FFF71BFE012291
:1038D00011461148FFF776FE02AA10A10E48FFF725
:1038E00011FEFEF733FB60610BB030BD2C000020F1
:1038F000253032643A253032643A25303264000093
:103900003A3B0008257320253032642F253032647D
:103910002F3230253032640018010020257300005A
:103920007CB5FEF713FB194DE968401AB0F5FA7F34
:103930002BD305F11800FFF7EBFE05F11800FFF798
:10394000A5FE0646032200211148FFF73BFE05F1C4
:10395000180410A1A0780090637822780C48FFF733
:10396000D1FD012211460A48FFF72CFEA1796079AA
:10397000CDE900010B48237900EB86020AA1044837
:10398000FFF7C0FDFEF7E2FAE8607CBD14000020FE
:1039900018010020253032643A253032643A25304F
:1039A000326400003A3B0008257320253032642F32
:1039B000253032642F3230253032640010B504785F
:1039C00033B1641CE3B203708B4200DD027010BDA2
:1039D000641EE3B203709342F9DA017010BD000077
:1039E0001FB50D480DA10379C2786846FCF724FD88
:1039F000052200210C48FFF7E5FD0CA10A48FFF75E
:103A000081FD052201210848FFF7DCFD6A4609A176
:103A10000548FFF777FD1FBD1400002025303264F4
:103A20003A2530326400000018010020414C415218
:103A30004D000000257300007CB51348FFF768FEB9
:103A40001148FFF723FE0546032200210F48FFF728
:103A5000B9FD0D4C0EA1A0780090637822780B4838
:103A6000FFF750FD012211460848FFF7ABFDA17991
:103A70006079CDE900010A48237900EB850209A1AC
:103A80000248FFF73FFD7CBD2C00002018010020FC
:103A9000253032643A253032643A253032640000F1
:103AA0003A3B0008257320253032642F25303264DC
:103AB0002F3230253032640010B500290AD0087842
:103AC000002807D005487844FDF712FD002801D0F2
:103AD000002010BD0248784410BD0000AE01000077
:103AE000A601000010B500290AD00878002807D0E8
:103AF00005487844FDF7FCFC002801D0002010BDEB
:103B00000248784410BD00009E01000096010000AC
:103B10004FF04070E1EE100A7047FDF70DB9FDF768
:103B200041BA000000000000000001020304060783
:103B30000809000000000102030453554E004D4FD8
:103B40004E005455450057454400544855004652D0
:103B50004900534154000400000800000000000028
:103B60000002000100001000000000000000000042
:103B700030313233343536373839414243444546A3
:103B8000403058003031323334353637383961629D
:103B9000636465664030780030313233343536370F
:103BA000383961626364656678700030313233346D
:103BB00035363738394142434445465850000000B5
:103BC00002400000000000A00000000005400000CE
:103BD000000000C8000000000C4000000000409CF5
:103BE00000000000194000000020BCBE00000000E2
:103BF00034400000BFC91B8E00000004B540000027
:103C0000504BCFD06607E2CF010000006C410000AE
:103C10003E8251AADFEEA73401000000D942000025
:103C2000DCB5A0E23A301F97FFFFFFFFB44500006C
:103C3000FD25A0C8E9A3C14FFFFFFFFFFF3F000024
:103C40000000008000000000FF3F00000000008036
:103C500000000000A03D000800000020340000002B
:103C6000D4010008D43D00083400002054070000AF
:103C7000F00100081C00000043000000F8FFFFFFF7
:103C80000C0000000E0000000F0000002E000000DD
:103C90001001000043000000F8FFFFFF004040401B
:103CA000404040404040414141414140404040400F
:103CB00040404040404040404040404040050202BB
:103CC000020202020202020202020202022020207A
:103CD00020202020202020020202020202029090D6
:103CE00090909090101010101010101010101010D4
:103CF0001010101010101010020202020202888828
:103D00008888888808080808080808080808080833
:103D1000080808080808080802020202400000001B
:103D20000000000000000000000000000000000093
:103D30000000000000000000000000000000000083
:103D40000000000000000000000000000000000073
:103D50000000000000000000000000000000000063
:103D60000000000000000000000000000000000053
:103D70000000000000000000000000000000000043
:103D80000000000000000000000000000000000033
:103D90000000000000000000000000000000000023
:103DA0000100000010000000000000000024F400EA
:103DB0000000000000010100000000000000000001
:103DC00000000000000000000000000000000000F3
:043DD00000000000EF
:040000050800019955
:00000001FF
